{
  "_format": "hh-sol-artifact-1",
  "contractName": "Prescribe",
  "sourceName": "contracts/Prescribe.sol",
  "abi": [
    {
      "inputs": [],
      "stateMutability": "nonpayable",
      "type": "constructor"
    },
    {
      "inputs": [
        {
          "internalType": "address",
          "name": "organisation",
          "type": "address"
        }
      ],
      "name": "addOrganisations",
      "outputs": [],
      "stateMutability": "nonpayable",
      "type": "function"
    },
    {
      "inputs": [
        {
          "internalType": "address",
          "name": "organisation",
          "type": "address"
        }
      ],
      "name": "isTrusted",
      "outputs": [
        {
          "internalType": "bool",
          "name": "",
          "type": "bool"
        }
      ],
      "stateMutability": "view",
      "type": "function"
    },
    {
      "inputs": [
        {
          "internalType": "string",
          "name": "_place",
          "type": "string"
        },
        {
          "internalType": "string",
          "name": "_comments",
          "type": "string"
        },
        {
          "internalType": "address",
          "name": "patient",
          "type": "address"
        }
      ],
      "name": "markVisit",
      "outputs": [],
      "stateMutability": "nonpayable",
      "type": "function"
    },
    {
      "inputs": [
        {
          "internalType": "address",
          "name": "",
          "type": "address"
        },
        {
          "internalType": "uint256",
          "name": "",
          "type": "uint256"
        }
      ],
      "name": "medicalHistory",
      "outputs": [
        {
          "internalType": "uint256",
          "name": "dateVisited",
          "type": "uint256"
        },
        {
          "internalType": "string",
          "name": "place",
          "type": "string"
        },
        {
          "internalType": "string",
          "name": "comments",
          "type": "string"
        },
        {
          "internalType": "address",
          "name": "patient",
          "type": "address"
        }
      ],
      "stateMutability": "view",
      "type": "function"
    },
    {
      "inputs": [
        {
          "internalType": "address",
          "name": "patient",
          "type": "address"
        }
      ],
      "name": "showAllVisits",
      "outputs": [
        {
          "components": [
            {
              "internalType": "uint256",
              "name": "dateVisited",
              "type": "uint256"
            },
            {
              "internalType": "string",
              "name": "place",
              "type": "string"
            },
            {
              "internalType": "string",
              "name": "comments",
              "type": "string"
            },
            {
              "internalType": "address",
              "name": "patient",
              "type": "address"
            }
          ],
          "internalType": "struct Prescribe.history[]",
          "name": "",
          "type": "tuple[]"
        }
      ],
      "stateMutability": "view",
      "type": "function"
    },
    {
      "inputs": [
        {
          "internalType": "address",
          "name": "",
          "type": "address"
        }
      ],
      "name": "trustedOrganisations",
      "outputs": [
        {
          "internalType": "bool",
          "name": "",
          "type": "bool"
        }
      ],
      "stateMutability": "view",
      "type": "function"
    }
  ],
  "bytecode": "0x608060405234801561001057600080fd5b50336000806101000a81548173ffffffffffffffffffffffffffffffffffffffff021916908373ffffffffffffffffffffffffffffffffffffffff160217905550611262806100606000396000f3fe608060405234801561001057600080fd5b50600436106100625760003560e01c80631966363e1461006757806348eb870714610083578063889f090e146100b657806396d64879146100e6578063b87d5afc14610116578063c177e50f14610132575b600080fd5b610081600480360381019061007c9190610917565b610162565b005b61009d6004803603810190610098919061097a565b6101bd565b6040516100ad9493929190610a68565b60405180910390f35b6100d060048036038101906100cb9190610917565b61033a565b6040516100dd9190610c4f565b60405180910390f35b61010060048036038101906100fb9190610917565b610672565b60405161010d9190610c8c565b60405180910390f35b610130600480360381019061012b9190610ddc565b6106cf565b005b61014c60048036038101906101479190610917565b610885565b6040516101599190610c8c565b60405180910390f35b6001600260008373ffffffffffffffffffffffffffffffffffffffff1673ffffffffffffffffffffffffffffffffffffffff16815260200190815260200160002060006101000a81548160ff02191690831515021790555050565b600160205281600052604060002081815481106101d957600080fd5b90600052602060002090600402016000915091505080600001549080600101805461020390610e96565b80601f016020809104026020016040519081016040528092919081815260200182805461022f90610e96565b801561027c5780601f106102515761010080835404028352916020019161027c565b820191906000526020600020905b81548152906001019060200180831161025f57829003601f168201915b50505050509080600201805461029190610e96565b80601f01602080910402602001604051908101604052809291908181526020018280546102bd90610e96565b801561030a5780601f106102df5761010080835404028352916020019161030a565b820191906000526020600020905b8154815290600101906020018083116102ed57829003601f168201915b5050505050908060030160009054906101000a900473ffffffffffffffffffffffffffffffffffffffff16905084565b606060011515600260003373ffffffffffffffffffffffffffffffffffffffff1673ffffffffffffffffffffffffffffffffffffffff16815260200190815260200160002060009054906101000a900460ff16151514806104495750600160008373ffffffffffffffffffffffffffffffffffffffff1673ffffffffffffffffffffffffffffffffffffffff1681526020019081526020016000206000815481106103e8576103e7610ec7565b5b906000526020600020906004020160030160009054906101000a900473ffffffffffffffffffffffffffffffffffffffff1673ffffffffffffffffffffffffffffffffffffffff163373ffffffffffffffffffffffffffffffffffffffff16145b61045257600080fd5b600160008373ffffffffffffffffffffffffffffffffffffffff1673ffffffffffffffffffffffffffffffffffffffff168152602001908152602001600020805480602002602001604051908101604052809291908181526020016000905b828210156106675783829060005260206000209060040201604051806080016040529081600082015481526020016001820180546104ee90610e96565b80601f016020809104026020016040519081016040528092919081815260200182805461051a90610e96565b80156105675780601f1061053c57610100808354040283529160200191610567565b820191906000526020600020905b81548152906001019060200180831161054a57829003601f168201915b5050505050815260200160028201805461058090610e96565b80601f01602080910402602001604051908101604052809291908181526020018280546105ac90610e96565b80156105f95780601f106105ce576101008083540402835291602001916105f9565b820191906000526020600020905b8154815290600101906020018083116105dc57829003601f168201915b505050505081526020016003820160009054906101000a900473ffffffffffffffffffffffffffffffffffffffff1673ffffffffffffffffffffffffffffffffffffffff1673ffffffffffffffffffffffffffffffffffffffff1681525050815260200190600101906104b1565b505050509050919050565b600060011515600260008473ffffffffffffffffffffffffffffffffffffffff1673ffffffffffffffffffffffffffffffffffffffff16815260200190815260200160002060009054906101000a900460ff161515149050919050565b60011515600260003373ffffffffffffffffffffffffffffffffffffffff1673ffffffffffffffffffffffffffffffffffffffff16815260200190815260200160002060009054906101000a900460ff16151514610762576040517f08c379a000000000000000000000000000000000000000000000000000000000815260040161075990610f8e565b60405180910390fd5b600160008273ffffffffffffffffffffffffffffffffffffffff1673ffffffffffffffffffffffffffffffffffffffff16815260200190815260200160002060405180608001604052804281526020018581526020018481526020018373ffffffffffffffffffffffffffffffffffffffff168152509080600181540180825580915050600190039060005260206000209060040201600090919091909150600082015181600001556020820151816001019081610820919061115a565b506040820151816002019081610836919061115a565b5060608201518160030160006101000a81548173ffffffffffffffffffffffffffffffffffffffff021916908373ffffffffffffffffffffffffffffffffffffffff1602179055505050505050565b60026020528060005260406000206000915054906101000a900460ff1681565b6000604051905090565b600080fd5b600080fd5b600073ffffffffffffffffffffffffffffffffffffffff82169050919050565b60006108e4826108b9565b9050919050565b6108f4816108d9565b81146108ff57600080fd5b50565b600081359050610911816108eb565b92915050565b60006020828403121561092d5761092c6108af565b5b600061093b84828501610902565b91505092915050565b6000819050919050565b61095781610944565b811461096257600080fd5b50565b6000813590506109748161094e565b92915050565b60008060408385031215610991576109906108af565b5b600061099f85828601610902565b92505060206109b085828601610965565b9150509250929050565b6109c381610944565b82525050565b600081519050919050565b600082825260208201905092915050565b60005b83811015610a035780820151818401526020810190506109e8565b60008484015250505050565b6000601f19601f8301169050919050565b6000610a2b826109c9565b610a3581856109d4565b9350610a458185602086016109e5565b610a4e81610a0f565b840191505092915050565b610a62816108d9565b82525050565b6000608082019050610a7d60008301876109ba565b8181036020830152610a8f8186610a20565b90508181036040830152610aa38185610a20565b9050610ab26060830184610a59565b95945050505050565b600081519050919050565b600082825260208201905092915050565b6000819050602082019050919050565b610af081610944565b82525050565b600082825260208201905092915050565b6000610b12826109c9565b610b1c8185610af6565b9350610b2c8185602086016109e5565b610b3581610a0f565b840191505092915050565b610b49816108d9565b82525050565b6000608083016000830151610b676000860182610ae7565b5060208301518482036020860152610b7f8282610b07565b91505060408301518482036040860152610b998282610b07565b9150506060830151610bae6060860182610b40565b508091505092915050565b6000610bc58383610b4f565b905092915050565b6000602082019050919050565b6000610be582610abb565b610bef8185610ac6565b935083602082028501610c0185610ad7565b8060005b85811015610c3d5784840389528151610c1e8582610bb9565b9450610c2983610bcd565b925060208a01995050600181019050610c05565b50829750879550505050505092915050565b60006020820190508181036000830152610c698184610bda565b905092915050565b60008115159050919050565b610c8681610c71565b82525050565b6000602082019050610ca16000830184610c7d565b92915050565b600080fd5b600080fd5b7f4e487b7100000000000000000000000000000000000000000000000000000000600052604160045260246000fd5b610ce982610a0f565b810181811067ffffffffffffffff82111715610d0857610d07610cb1565b5b80604052505050565b6000610d1b6108a5565b9050610d278282610ce0565b919050565b600067ffffffffffffffff821115610d4757610d46610cb1565b5b610d5082610a0f565b9050602081019050919050565b82818337600083830152505050565b6000610d7f610d7a84610d2c565b610d11565b905082815260208101848484011115610d9b57610d9a610cac565b5b610da6848285610d5d565b509392505050565b600082601f830112610dc357610dc2610ca7565b5b8135610dd3848260208601610d6c565b91505092915050565b600080600060608486031215610df557610df46108af565b5b600084013567ffffffffffffffff811115610e1357610e126108b4565b5b610e1f86828701610dae565b935050602084013567ffffffffffffffff811115610e4057610e3f6108b4565b5b610e4c86828701610dae565b9250506040610e5d86828701610902565b9150509250925092565b7f4e487b7100000000000000000000000000000000000000000000000000000000600052602260045260246000fd5b60006002820490506001821680610eae57607f821691505b602082108103610ec157610ec0610e67565b5b50919050565b7f4e487b7100000000000000000000000000000000000000000000000000000000600052603260045260246000fd5b7f546869732069736e277420612074727573746564206f7267616e69736174696f60008201527f6e2e2053656e642075732061207265717565737420616e64207765276c6c207660208201527f657269667920796f750000000000000000000000000000000000000000000000604082015250565b6000610f786049836109d4565b9150610f8382610ef6565b606082019050919050565b60006020820190508181036000830152610fa781610f6b565b9050919050565b60008190508160005260206000209050919050565b60006020601f8301049050919050565b600082821b905092915050565b6000600883026110107fffffffffffffffffffffffffffffffffffffffffffffffffffffffffffffffff82610fd3565b61101a8683610fd3565b95508019841693508086168417925050509392505050565b6000819050919050565b600061105761105261104d84610944565b611032565b610944565b9050919050565b6000819050919050565b6110718361103c565b61108561107d8261105e565b848454610fe0565b825550505050565b600090565b61109a61108d565b6110a5818484611068565b505050565b5b818110156110c9576110be600082611092565b6001810190506110ab565b5050565b601f82111561110e576110df81610fae565b6110e884610fc3565b810160208510156110f7578190505b61110b61110385610fc3565b8301826110aa565b50505b505050565b600082821c905092915050565b600061113160001984600802611113565b1980831691505092915050565b600061114a8383611120565b9150826002028217905092915050565b611163826109c9565b67ffffffffffffffff81111561117c5761117b610cb1565b5b6111868254610e96565b6111918282856110cd565b600060209050601f8311600181146111c457600084156111b2578287015190505b6111bc858261113e565b865550611224565b601f1984166111d286610fae565b60005b828110156111fa578489015182556001820191506020850194506020810190506111d5565b868310156112175784890151611213601f891682611120565b8355505b6001600288020188555050505b50505050505056fea2646970667358221220307261f491367337a8ae20192b6eee20d2f0e3694bb762d20c6dc48139acf00864736f6c63430008110033",
  "linkReferences": {},
  "deployedLinkReferences": {}
}