{
  "_format": "hh-sol-artifact-1",
  "contractName": "Prescribe",
  "sourceName": "contracts/Prescribe.sol",
  "abi": [
    {
      "inputs": [],
      "stateMutability": "nonpayable",
      "type": "constructor"
    },
    {
      "inputs": [
        {
          "internalType": "address",
          "name": "organisation",
          "type": "address"
        }
      ],
      "name": "addOrganisations",
      "outputs": [],
      "stateMutability": "nonpayable",
      "type": "function"
    },
    {
      "inputs": [
        {
          "internalType": "address",
          "name": "organisation",
          "type": "address"
        }
      ],
      "name": "isTrusted",
      "outputs": [
        {
          "internalType": "bool",
          "name": "",
          "type": "bool"
        }
      ],
      "stateMutability": "view",
      "type": "function"
    },
    {
      "inputs": [
        {
          "internalType": "bytes32",
          "name": "_place",
          "type": "bytes32"
        },
        {
          "internalType": "bytes32",
          "name": "_comments",
          "type": "bytes32"
        },
        {
          "internalType": "address",
          "name": "patient",
          "type": "address"
        }
      ],
      "name": "markVisit",
      "outputs": [],
      "stateMutability": "nonpayable",
      "type": "function"
    },
    {
      "inputs": [
        {
          "internalType": "address",
          "name": "",
          "type": "address"
        },
        {
          "internalType": "uint256",
          "name": "",
          "type": "uint256"
        }
      ],
      "name": "medicalHistory",
      "outputs": [
        {
          "internalType": "uint256",
          "name": "dateVisited",
          "type": "uint256"
        },
        {
          "internalType": "bytes32",
          "name": "place",
          "type": "bytes32"
        },
        {
          "internalType": "bytes32",
          "name": "comments",
          "type": "bytes32"
        },
        {
          "internalType": "address",
          "name": "patient",
          "type": "address"
        }
      ],
      "stateMutability": "view",
      "type": "function"
    },
    {
      "inputs": [
        {
          "internalType": "address",
          "name": "patient",
          "type": "address"
        }
      ],
      "name": "showAllVisits",
      "outputs": [
        {
          "components": [
            {
              "internalType": "uint256",
              "name": "dateVisited",
              "type": "uint256"
            },
            {
              "internalType": "bytes32",
              "name": "place",
              "type": "bytes32"
            },
            {
              "internalType": "bytes32",
              "name": "comments",
              "type": "bytes32"
            },
            {
              "internalType": "address",
              "name": "patient",
              "type": "address"
            }
          ],
          "internalType": "struct Prescribe.history[]",
          "name": "",
          "type": "tuple[]"
        }
      ],
      "stateMutability": "view",
      "type": "function"
    },
    {
      "inputs": [
        {
          "internalType": "address",
          "name": "",
          "type": "address"
        }
      ],
      "name": "trustedOrganisations",
      "outputs": [
        {
          "internalType": "bool",
          "name": "",
          "type": "bool"
        }
      ],
      "stateMutability": "view",
      "type": "function"
    }
  ],
  "bytecode": "0x608060405234801561001057600080fd5b50336000806101000a81548173ffffffffffffffffffffffffffffffffffffffff021916908373ffffffffffffffffffffffffffffffffffffffff160217905550610b25806100606000396000f3fe608060405234801561001057600080fd5b50600436106100625760003560e01c8063050acb03146100675780631966363e1461008357806348eb87071461009f578063889f090e146100d257806396d6487914610102578063c177e50f14610132575b600080fd5b610081600480360381019061007c9190610706565b610162565b005b61009d60048036038101906100989190610759565b610300565b005b6100b960048036038101906100b491906107bc565b61035b565b6040516100c99493929190610829565b60405180910390f35b6100ec60048036038101906100e79190610759565b6103c8565b6040516100f9919061099f565b60405180910390f35b61011c60048036038101906101179190610759565b6105f0565b60405161012991906109dc565b60405180910390f35b61014c60048036038101906101479190610759565b61064d565b60405161015991906109dc565b60405180910390f35b60011515600260003373ffffffffffffffffffffffffffffffffffffffff1673ffffffffffffffffffffffffffffffffffffffff16815260200190815260200160002060009054906101000a900460ff161515146101f5576040517f08c379a00000000000000000000000000000000000000000000000000000000081526004016101ec90610aa0565b60405180910390fd5b600160008273ffffffffffffffffffffffffffffffffffffffff1673ffffffffffffffffffffffffffffffffffffffff16815260200190815260200160002060405180608001604052804281526020018581526020018481526020018373ffffffffffffffffffffffffffffffffffffffff16815250908060018154018082558091505060019003906000526020600020906004020160009091909190915060008201518160000155602082015181600101556040820151816002015560608201518160030160006101000a81548173ffffffffffffffffffffffffffffffffffffffff021916908373ffffffffffffffffffffffffffffffffffffffff1602179055505050505050565b6001600260008373ffffffffffffffffffffffffffffffffffffffff1673ffffffffffffffffffffffffffffffffffffffff16815260200190815260200160002060006101000a81548160ff02191690831515021790555050565b6001602052816000526040600020818154811061037757600080fd5b9060005260206000209060040201600091509150508060000154908060010154908060020154908060030160009054906101000a900473ffffffffffffffffffffffffffffffffffffffff16905084565b606060011515600260003373ffffffffffffffffffffffffffffffffffffffff1673ffffffffffffffffffffffffffffffffffffffff16815260200190815260200160002060009054906101000a900460ff16151514806104d75750600160008373ffffffffffffffffffffffffffffffffffffffff1673ffffffffffffffffffffffffffffffffffffffff16815260200190815260200160002060008154811061047657610475610ac0565b5b906000526020600020906004020160030160009054906101000a900473ffffffffffffffffffffffffffffffffffffffff1673ffffffffffffffffffffffffffffffffffffffff163373ffffffffffffffffffffffffffffffffffffffff16145b6104e057600080fd5b600160008373ffffffffffffffffffffffffffffffffffffffff1673ffffffffffffffffffffffffffffffffffffffff168152602001908152602001600020805480602002602001604051908101604052809291908181526020016000905b828210156105e557838290600052602060002090600402016040518060800160405290816000820154815260200160018201548152602001600282015481526020016003820160009054906101000a900473ffffffffffffffffffffffffffffffffffffffff1673ffffffffffffffffffffffffffffffffffffffff1673ffffffffffffffffffffffffffffffffffffffff16815250508152602001906001019061053f565b505050509050919050565b600060011515600260008473ffffffffffffffffffffffffffffffffffffffff1673ffffffffffffffffffffffffffffffffffffffff16815260200190815260200160002060009054906101000a900460ff161515149050919050565b60026020528060005260406000206000915054906101000a900460ff1681565b600080fd5b6000819050919050565b61068581610672565b811461069057600080fd5b50565b6000813590506106a28161067c565b92915050565b600073ffffffffffffffffffffffffffffffffffffffff82169050919050565b60006106d3826106a8565b9050919050565b6106e3816106c8565b81146106ee57600080fd5b50565b600081359050610700816106da565b92915050565b60008060006060848603121561071f5761071e61066d565b5b600061072d86828701610693565b935050602061073e86828701610693565b925050604061074f868287016106f1565b9150509250925092565b60006020828403121561076f5761076e61066d565b5b600061077d848285016106f1565b91505092915050565b6000819050919050565b61079981610786565b81146107a457600080fd5b50565b6000813590506107b681610790565b92915050565b600080604083850312156107d3576107d261066d565b5b60006107e1858286016106f1565b92505060206107f2858286016107a7565b9150509250929050565b61080581610786565b82525050565b61081481610672565b82525050565b610823816106c8565b82525050565b600060808201905061083e60008301876107fc565b61084b602083018661080b565b610858604083018561080b565b610865606083018461081a565b95945050505050565b600081519050919050565b600082825260208201905092915050565b6000819050602082019050919050565b6108a381610786565b82525050565b6108b281610672565b82525050565b6108c1816106c8565b82525050565b6080820160008201516108dd600085018261089a565b5060208201516108f060208501826108a9565b50604082015161090360408501826108a9565b50606082015161091660608501826108b8565b50505050565b600061092883836108c7565b60808301905092915050565b6000602082019050919050565b600061094c8261086e565b6109568185610879565b93506109618361088a565b8060005b83811015610992578151610979888261091c565b975061098483610934565b925050600181019050610965565b5085935050505092915050565b600060208201905081810360008301526109b98184610941565b905092915050565b60008115159050919050565b6109d6816109c1565b82525050565b60006020820190506109f160008301846109cd565b92915050565b600082825260208201905092915050565b7f546869732069736e277420612074727573746564206f7267616e69736174696f60008201527f6e2e2053656e642075732061207265717565737420616e64207765276c6c207660208201527f657269667920796f750000000000000000000000000000000000000000000000604082015250565b6000610a8a6049836109f7565b9150610a9582610a08565b606082019050919050565b60006020820190508181036000830152610ab981610a7d565b9050919050565b7f4e487b7100000000000000000000000000000000000000000000000000000000600052603260045260246000fdfea2646970667358221220705a09d13be521d1c0f0d07d9da6e4ef1da4ce5287a7579985f8dd4b0293c35964736f6c63430008110033",
  "linkReferences": {},
  "deployedLinkReferences": {}
}