{
  "_format": "hh-sol-artifact-1",
  "contractName": "Prescribe",
  "sourceName": "contracts/Prescribe.sol",
  "abi": [
    {
      "inputs": [],
      "stateMutability": "nonpayable",
      "type": "constructor"
    },
    {
      "inputs": [
        {
          "internalType": "address",
          "name": "organisation",
          "type": "address"
        }
      ],
      "name": "addOrganisations",
      "outputs": [],
      "stateMutability": "nonpayable",
      "type": "function"
    },
    {
      "inputs": [
        {
          "internalType": "address",
          "name": "organisation",
          "type": "address"
        }
      ],
      "name": "isTrusted",
      "outputs": [
        {
          "internalType": "bool",
          "name": "",
          "type": "bool"
        }
      ],
      "stateMutability": "view",
      "type": "function"
    },
    {
      "inputs": [
        {
          "internalType": "bytes32",
          "name": "_place",
          "type": "bytes32"
        },
        {
          "internalType": "bytes32",
          "name": "_comments",
          "type": "bytes32"
        },
        {
          "internalType": "address",
          "name": "patient",
          "type": "address"
        }
      ],
      "name": "markVisit",
      "outputs": [],
      "stateMutability": "nonpayable",
      "type": "function"
    },
    {
      "inputs": [
        {
          "internalType": "address",
          "name": "",
          "type": "address"
        },
        {
          "internalType": "uint256",
          "name": "",
          "type": "uint256"
        }
      ],
      "name": "medicalHistory",
      "outputs": [
        {
          "internalType": "uint256",
          "name": "dateVisited",
          "type": "uint256"
        },
        {
          "internalType": "bytes32",
          "name": "place",
          "type": "bytes32"
        },
        {
          "internalType": "bytes32",
          "name": "comments",
          "type": "bytes32"
        },
        {
          "internalType": "address",
          "name": "patient",
          "type": "address"
        }
      ],
      "stateMutability": "view",
      "type": "function"
    },
    {
      "inputs": [
        {
          "internalType": "address",
          "name": "patient",
          "type": "address"
        }
      ],
      "name": "showAllVisits",
      "outputs": [
        {
          "components": [
            {
              "internalType": "uint256",
              "name": "dateVisited",
              "type": "uint256"
            },
            {
              "internalType": "bytes32",
              "name": "place",
              "type": "bytes32"
            },
            {
              "internalType": "bytes32",
              "name": "comments",
              "type": "bytes32"
            },
            {
              "internalType": "address",
              "name": "patient",
              "type": "address"
            }
          ],
          "internalType": "struct Prescribe.history[]",
          "name": "",
          "type": "tuple[]"
        }
      ],
      "stateMutability": "view",
      "type": "function"
    },
    {
      "inputs": [
        {
          "internalType": "address",
          "name": "",
          "type": "address"
        }
      ],
      "name": "trustedOrganisations",
      "outputs": [
        {
          "internalType": "bool",
          "name": "",
          "type": "bool"
        }
      ],
      "stateMutability": "view",
      "type": "function"
    }
  ],
  "bytecode": "0x608060405234801561001057600080fd5b50336000806101000a81548173ffffffffffffffffffffffffffffffffffffffff021916908373ffffffffffffffffffffffffffffffffffffffff160217905550610884806100606000396000f3fe608060405234801561001057600080fd5b50600436106100625760003560e01c8063050acb03146100675780631966363e1461008357806348eb87071461009f578063889f090e146100d257806396d6487914610102578063c177e50f14610132575b600080fd5b610081600480360381019061007c919061055d565b610162565b005b61009d600480360381019061009891906105b0565b61026d565b005b6100b960048036038101906100b49190610613565b6102c8565b6040516100c99493929190610680565b60405180910390f35b6100ec60048036038101906100e791906105b0565b610335565b6040516100f991906107f6565b60405180910390f35b61011c600480360381019061011791906105b0565b610447565b6040516101299190610833565b60405180910390f35b61014c600480360381019061014791906105b0565b6104a4565b6040516101599190610833565b60405180910390f35b600160008273ffffffffffffffffffffffffffffffffffffffff1673ffffffffffffffffffffffffffffffffffffffff16815260200190815260200160002060405180608001604052804281526020018581526020018481526020018373ffffffffffffffffffffffffffffffffffffffff16815250908060018154018082558091505060019003906000526020600020906004020160009091909190915060008201518160000155602082015181600101556040820151816002015560608201518160030160006101000a81548173ffffffffffffffffffffffffffffffffffffffff021916908373ffffffffffffffffffffffffffffffffffffffff1602179055505050505050565b6001600260008373ffffffffffffffffffffffffffffffffffffffff1673ffffffffffffffffffffffffffffffffffffffff16815260200190815260200160002060006101000a81548160ff02191690831515021790555050565b600160205281600052604060002081815481106102e457600080fd5b9060005260206000209060040201600091509150508060000154908060010154908060020154908060030160009054906101000a900473ffffffffffffffffffffffffffffffffffffffff16905084565b6060600160008373ffffffffffffffffffffffffffffffffffffffff1673ffffffffffffffffffffffffffffffffffffffff168152602001908152602001600020805480602002602001604051908101604052809291908181526020016000905b8282101561043c57838290600052602060002090600402016040518060800160405290816000820154815260200160018201548152602001600282015481526020016003820160009054906101000a900473ffffffffffffffffffffffffffffffffffffffff1673ffffffffffffffffffffffffffffffffffffffff1673ffffffffffffffffffffffffffffffffffffffff168152505081526020019060010190610396565b505050509050919050565b600060011515600260008473ffffffffffffffffffffffffffffffffffffffff1673ffffffffffffffffffffffffffffffffffffffff16815260200190815260200160002060009054906101000a900460ff161515149050919050565b60026020528060005260406000206000915054906101000a900460ff1681565b600080fd5b6000819050919050565b6104dc816104c9565b81146104e757600080fd5b50565b6000813590506104f9816104d3565b92915050565b600073ffffffffffffffffffffffffffffffffffffffff82169050919050565b600061052a826104ff565b9050919050565b61053a8161051f565b811461054557600080fd5b50565b60008135905061055781610531565b92915050565b600080600060608486031215610576576105756104c4565b5b6000610584868287016104ea565b9350506020610595868287016104ea565b92505060406105a686828701610548565b9150509250925092565b6000602082840312156105c6576105c56104c4565b5b60006105d484828501610548565b91505092915050565b6000819050919050565b6105f0816105dd565b81146105fb57600080fd5b50565b60008135905061060d816105e7565b92915050565b6000806040838503121561062a576106296104c4565b5b600061063885828601610548565b9250506020610649858286016105fe565b9150509250929050565b61065c816105dd565b82525050565b61066b816104c9565b82525050565b61067a8161051f565b82525050565b60006080820190506106956000830187610653565b6106a26020830186610662565b6106af6040830185610662565b6106bc6060830184610671565b95945050505050565b600081519050919050565b600082825260208201905092915050565b6000819050602082019050919050565b6106fa816105dd565b82525050565b610709816104c9565b82525050565b6107188161051f565b82525050565b60808201600082015161073460008501826106f1565b5060208201516107476020850182610700565b50604082015161075a6040850182610700565b50606082015161076d606085018261070f565b50505050565b600061077f838361071e565b60808301905092915050565b6000602082019050919050565b60006107a3826106c5565b6107ad81856106d0565b93506107b8836106e1565b8060005b838110156107e95781516107d08882610773565b97506107db8361078b565b9250506001810190506107bc565b5085935050505092915050565b600060208201905081810360008301526108108184610798565b905092915050565b60008115159050919050565b61082d81610818565b82525050565b60006020820190506108486000830184610824565b9291505056fea2646970667358221220f2c41d085f2bd9d0cd12d66a2f3a082a7787ecf19430be77a7db162b6e01b3d364736f6c63430008110033",
  "linkReferences": {},
  "deployedLinkReferences": {}
}