{
  "_format": "hh-sol-artifact-1",
  "contractName": "Prescribe",
  "sourceName": "contracts/Prescribe.sol",
  "abi": [
    {
      "inputs": [
        {
          "internalType": "bytes32",
          "name": "_place",
          "type": "bytes32"
        },
        {
          "internalType": "bytes32",
          "name": "_hash",
          "type": "bytes32"
        },
        {
          "internalType": "address",
          "name": "patient",
          "type": "address"
        }
      ],
      "name": "addPrescription",
      "outputs": [],
      "stateMutability": "nonpayable",
      "type": "function"
    },
    {
      "inputs": [
        {
          "internalType": "bytes32",
          "name": "_place",
          "type": "bytes32"
        },
        {
          "internalType": "bytes32",
          "name": "_comments",
          "type": "bytes32"
        },
        {
          "internalType": "address",
          "name": "patient",
          "type": "address"
        }
      ],
      "name": "markVisit",
      "outputs": [],
      "stateMutability": "nonpayable",
      "type": "function"
    },
    {
      "inputs": [
        {
          "internalType": "address",
          "name": "",
          "type": "address"
        },
        {
          "internalType": "uint256",
          "name": "",
          "type": "uint256"
        }
      ],
      "name": "medicalHistory",
      "outputs": [
        {
          "internalType": "uint256",
          "name": "dateVisited",
          "type": "uint256"
        },
        {
          "internalType": "bytes32",
          "name": "place",
          "type": "bytes32"
        },
        {
          "internalType": "bytes32",
          "name": "comments",
          "type": "bytes32"
        }
      ],
      "stateMutability": "view",
      "type": "function"
    },
    {
      "inputs": [
        {
          "internalType": "address",
          "name": "",
          "type": "address"
        },
        {
          "internalType": "uint256",
          "name": "",
          "type": "uint256"
        }
      ],
      "name": "prescriptions",
      "outputs": [
        {
          "internalType": "uint256",
          "name": "datePrescribed",
          "type": "uint256"
        },
        {
          "internalType": "bytes32",
          "name": "place",
          "type": "bytes32"
        },
        {
          "internalType": "bytes32",
          "name": "hash",
          "type": "bytes32"
        }
      ],
      "stateMutability": "view",
      "type": "function"
    },
    {
      "inputs": [
        {
          "internalType": "address",
          "name": "patient",
          "type": "address"
        }
      ],
      "name": "showAllVisits",
      "outputs": [
        {
          "components": [
            {
              "internalType": "uint256",
              "name": "dateVisited",
              "type": "uint256"
            },
            {
              "internalType": "bytes32",
              "name": "place",
              "type": "bytes32"
            },
            {
              "internalType": "bytes32",
              "name": "comments",
              "type": "bytes32"
            }
          ],
          "internalType": "struct Prescribe.history[]",
          "name": "",
          "type": "tuple[]"
        }
      ],
      "stateMutability": "view",
      "type": "function"
    },
    {
      "inputs": [
        {
          "internalType": "uint256",
          "name": "",
          "type": "uint256"
        }
      ],
      "name": "uniquePrescriptions",
      "outputs": [
        {
          "internalType": "uint256",
          "name": "datePrescribed",
          "type": "uint256"
        },
        {
          "internalType": "bytes32",
          "name": "place",
          "type": "bytes32"
        },
        {
          "internalType": "bytes32",
          "name": "hash",
          "type": "bytes32"
        }
      ],
      "stateMutability": "view",
      "type": "function"
    },
    {
      "inputs": [
        {
          "internalType": "uint256",
          "name": "_uid",
          "type": "uint256"
        }
      ],
      "name": "viewHistory",
      "outputs": [
        {
          "components": [
            {
              "internalType": "uint256",
              "name": "datePrescribed",
              "type": "uint256"
            },
            {
              "internalType": "bytes32",
              "name": "place",
              "type": "bytes32"
            },
            {
              "internalType": "bytes32",
              "name": "hash",
              "type": "bytes32"
            }
          ],
          "internalType": "struct Prescribe.prescriptionForm",
          "name": "",
          "type": "tuple"
        }
      ],
      "stateMutability": "view",
      "type": "function"
    },
    {
      "inputs": [],
      "name": "viewPrescriptions",
      "outputs": [
        {
          "components": [
            {
              "internalType": "uint256",
              "name": "datePrescribed",
              "type": "uint256"
            },
            {
              "internalType": "bytes32",
              "name": "place",
              "type": "bytes32"
            },
            {
              "internalType": "bytes32",
              "name": "hash",
              "type": "bytes32"
            }
          ],
          "internalType": "struct Prescribe.prescriptionForm[]",
          "name": "",
          "type": "tuple[]"
        }
      ],
      "stateMutability": "view",
      "type": "function"
    }
  ],
  "bytecode": "0x608060405234801561001057600080fd5b50610abb806100206000396000f3fe608060405234801561001057600080fd5b50600436106100885760003560e01c8063889f090e1161005b578063889f090e1461013f578063a99b5ad31461016f578063ad2b46a81461018d578063dd3d269d146101bd57610088565b8063050acb031461008d57806348eb8707146100a957806364148056146100db578063668d64291461010d575b600080fd5b6100a760048036038101906100a2919061066c565b6101d9565b005b6100c360048036038101906100be91906106f5565b610280565b6040516100d293929190610753565b60405180910390f35b6100f560048036038101906100f091906106f5565b6102c7565b60405161010493929190610753565b60405180910390f35b6101276004803603810190610122919061078a565b61030e565b60405161013693929190610753565b60405180910390f35b610159600480360381019061015491906107b7565b610338565b60405161016691906108f3565b60405180910390f35b6101776103f3565b6040516101849190610a06565b60405180910390f35b6101a760048036038101906101a2919061078a565b6104ad565b6040516101b49190610a6a565b60405180910390f35b6101d760048036038101906101d2919061066c565b6104f8565b005b6000808273ffffffffffffffffffffffffffffffffffffffff1673ffffffffffffffffffffffffffffffffffffffff16815260200190815260200160002060405180606001604052804281526020018581526020018481525090806001815401808255809150506001900390600052602060002090600302016000909190919091506000820151816000015560208201518160010155604082015181600201555050505050565b6000602052816000526040600020818154811061029c57600080fd5b9060005260206000209060030201600091509150508060000154908060010154908060020154905083565b600160205281600052604060002081815481106102e357600080fd5b9060005260206000209060030201600091509150508060000154908060010154908060020154905083565b60026020528060005260406000206000915090508060000154908060010154908060020154905083565b60606000808373ffffffffffffffffffffffffffffffffffffffff1673ffffffffffffffffffffffffffffffffffffffff168152602001908152602001600020805480602002602001604051908101604052809291908181526020016000905b828210156103e85783829060005260206000209060030201604051806060016040529081600082015481526020016001820154815260200160028201548152505081526020019060010190610398565b505050509050919050565b6060600160003373ffffffffffffffffffffffffffffffffffffffff1673ffffffffffffffffffffffffffffffffffffffff168152602001908152602001600020805480602002602001604051908101604052809291908181526020016000905b828210156104a45783829060005260206000209060030201604051806060016040529081600082015481526020016001820154815260200160028201548152505081526020019060010190610454565b50505050905090565b6104b56105ac565b6002600083815260200190815260200160002060405180606001604052908160008201548152602001600182015481526020016002820154815250509050919050565b610504836000836101d9565b600160008273ffffffffffffffffffffffffffffffffffffffff1673ffffffffffffffffffffffffffffffffffffffff16815260200190815260200160002060405180606001604052804281526020018581526020018481525090806001815401808255809150506001900390600052602060002090600302016000909190919091506000820151816000015560208201518160010155604082015181600201555050505050565b60405180606001604052806000815260200160008019168152602001600080191681525090565b600080fd5b6000819050919050565b6105eb816105d8565b81146105f657600080fd5b50565b600081359050610608816105e2565b92915050565b600073ffffffffffffffffffffffffffffffffffffffff82169050919050565b60006106398261060e565b9050919050565b6106498161062e565b811461065457600080fd5b50565b60008135905061066681610640565b92915050565b600080600060608486031215610685576106846105d3565b5b6000610693868287016105f9565b93505060206106a4868287016105f9565b92505060406106b586828701610657565b9150509250925092565b6000819050919050565b6106d2816106bf565b81146106dd57600080fd5b50565b6000813590506106ef816106c9565b92915050565b6000806040838503121561070c5761070b6105d3565b5b600061071a85828601610657565b925050602061072b858286016106e0565b9150509250929050565b61073e816106bf565b82525050565b61074d816105d8565b82525050565b60006060820190506107686000830186610735565b6107756020830185610744565b6107826040830184610744565b949350505050565b6000602082840312156107a05761079f6105d3565b5b60006107ae848285016106e0565b91505092915050565b6000602082840312156107cd576107cc6105d3565b5b60006107db84828501610657565b91505092915050565b600081519050919050565b600082825260208201905092915050565b6000819050602082019050919050565b610819816106bf565b82525050565b610828816105d8565b82525050565b6060820160008201516108446000850182610810565b506020820151610857602085018261081f565b50604082015161086a604085018261081f565b50505050565b600061087c838361082e565b60608301905092915050565b6000602082019050919050565b60006108a0826107e4565b6108aa81856107ef565b93506108b583610800565b8060005b838110156108e65781516108cd8882610870565b97506108d883610888565b9250506001810190506108b9565b5085935050505092915050565b6000602082019050818103600083015261090d8184610895565b905092915050565b600081519050919050565b600082825260208201905092915050565b6000819050602082019050919050565b6060820160008201516109576000850182610810565b50602082015161096a602085018261081f565b50604082015161097d604085018261081f565b50505050565b600061098f8383610941565b60608301905092915050565b6000602082019050919050565b60006109b382610915565b6109bd8185610920565b93506109c883610931565b8060005b838110156109f95781516109e08882610983565b97506109eb8361099b565b9250506001810190506109cc565b5085935050505092915050565b60006020820190508181036000830152610a2081846109a8565b905092915050565b606082016000820151610a3e6000850182610810565b506020820151610a51602085018261081f565b506040820151610a64604085018261081f565b50505050565b6000606082019050610a7f6000830184610a28565b9291505056fea264697066735822122098b02f899e6cadbf01d21373b4ddb9f67f18d3869eea38f2dc37ebaa1ccab23364736f6c63430008110033",
  "linkReferences": {},
  "deployedLinkReferences": {}
}